:020000020000FC
:1000000000C008E00EBF0FE50DBF112400EF0ABBD2
:100010000FEF0BBB00E007BB08BB0FEF04BB00E01A
:1000200005BB0FEF01BB00E002BBE894F4E0E0E0A9
:10003000F6F03FD00F3FE1F3402FB2D03AD0041793
:10004000B9F7042F61D00F3F51F00F3039F012E0B3
:10005000E11714E0F10718F4019301C0689429D066
:100060000F3FE9F79DD025D00F3FC9F7E1CF8ED0E4
:10007000202F8CD0302FE894F4E0E0E02A30C0F656
:100080003A3019F03B3091F0D3CFAF98AF9A88D087
:1000900046B3AF9814E341279798979A81D056B307
:1000A0009798512782D098D0B0D0C2CFA3D0ADD0EE
:1000B000BFCF0FE70BBB0000000009B3102F1F706C
:1000C0001F30F9F40FEB0BBB0000000009B3102F39
:1000D0001F701F30B1F40FED0BBB0000000009B31F
:1000E000102F1F701F3069F40FEE0BBB00000000D3
:1000F00009B3102F1F701F3021F41FEF1BBB0FEF30
:1001000008951FEF1BBB0895073731F10B3711F12D
:100110000D37F1F00E37D1F0073B31F10B3B11F108
:100120000D3BF1F00E3BD1F0073D31F10B3D11F1EC
:100130000D3DF1F00E3DD1F0073E31F10B3E11F1D6
:100140000D3EF1F00E3ED1F00FEF089500E008955E
:1001500001E0089502E0089503E0089504E00895A1
:1001600005E0089506E0089507E0089508E0089581
:1001700009E008950AE008950BE008950CE0089561
:100180000DE008950EE008950FE0089510E0E117E6
:1001900014E0F10719F03197008108950FEF0895E9
:1001A00084EC99E00197F1F70895742FAA27750F51
:1001B00008F4A395072F0A2B69F004E6509F802DC1
:1001C000912D1124662787179A0728F0871B9A0B11
:1001D0006395F9CF66270895022F1FE0010FE1997B
:1001E000FECF0EBB11271FBB6DBBE29AE19AE199CE
:1001F000FECF0895022F1FE0010FE199FECF0EBB45
:1002000011271FBBE09A6DB30895862F77278A3098
:1002100018F08A507395FBCF082F05D015BB072F18
:1002200002D012BB08950030A1F00130A1F00230DD
:10023000A1F00330A1F00430A1F00530A1F00630A8
:10024000A1F00730A1F00830A1F00930A1F011278A
:1002500008951FE3089516E008951BE508951FE42F
:10026000089516E608951DE608951DE7089517E020
:0A02700008951FE708951FE60895A2
:00000001FF
