:100000000C942A000C9449000C945D000C94470059
:100010000C9447000C9447000C9447000C94470044
:100020000C9447000C9447000C9447000C94470034
:100030000C9447000C9447000C9447000C94470024
:100040000C9447000C9447000C9447000C94470014
:100050000C94470011241FBECFE5D8E0DEBFCDBF12
:1000600010E0A0E6B0E0EEE0F1E102C005900D92F4
:10007000AC39B107D9F720E0ACE9B0E001C01D927E
:10008000AF39B207E1F70E9486000C9485080C9402
:1000900000001F920F920FB60F9211248F939F931F
:1000A00090919D0080919C00892788BB9F918F91A2
:1000B0000F900FBE0F901F9018951F920F920FB6C2
:1000C0000F9211248F939F9390919E0080919C009A
:1000D000892788BB9F918F910F900FBE0F901F9023
:1000E000189597B1987F8770892B87B986B18064FE
:1000F00086B9349BFECF86B1806186B984B195B153
:10010000089580E487B983E886B90895CF93DF9393
:10011000CDB7DEB764970FB6F894DEBF0FBECDBF84
:100120001ABA8FEF84BB87BB0E940E020E94810027
:1001300087E085BF80EC8BBF7894CC24CA94DC2CFC
:100140000FEF1FEF89B38F7780939C0087E00E94A9
:1001500071007C0180919C0090E0C816D90679F16D
:10016000C0909C00D12C8BE0E4E6F0E09E012F5F74
:100170003F4F5901D90101900D928A95E1F762E054
:1001800080E00E947602C5010E945D0280919C0081
:100190001F928F938FE690E09F938F93BF92AF92C1
:1001A0000E94380562E080E00E947602C5010E944C
:1001B0005D020F900F900F900F900F900F900E1503
:1001C0001F0509F4BFCF0E94280568EA73E00E946A
:1001D000B4048B0107C00E94280568EA73E00E94FE
:1001E000B4048B010F301105B0F3B70180E090E04B
:1001F0000E94B90320E030E048EC52E40E9447043A
:1002000020E030EC4FE754E40E94180320E030E097
:1002100048E452E40E94AC020E948A034B015C0154
:10022000B80180E090E00E94B9039B01AC0160E05E
:1002300070E087E593E40E94AB022B013C01B4011E
:1002400080E090E00E94B9039B01AC01C301B201C0
:100250000E94470420E030E048EC52E40E9418037A
:100260000E948A0360939E0060919E0070E080E08F
:1002700090E00E94BB039B01AC01C301B2010E944C
:10028000AB020E948A0360939D0060919E0070E023
:1002900080E090E00E94B9034B015C0160919E00F8
:1002A00070E080E090E00E94B9032B013C01609176
:1002B0009D0070E080E090E00E94B9039B01AC01DA
:1002C000C301B2010E94AC029B01AC01C501B401A3
:1002D0000E94180320E030E048EC52E40E944704FA
:1002E0000E948A037F936F938EE790E09F938F9392
:1002F0008E010F5F1F4F1F930F930E94380560E020
:1003000080E00E947602C8010E945D0290919D00EB
:1003100080919E001F929F931F928F938CE890E094
:100320009F938F931F930F930E94380561E080E0A5
:100330000E947602C8010E945D020FB6F894DEBFEB
:100340000FBECDBF8701FECE95B39E7F95BB95B303
:100350009D7F95BB95B39F70807F892B85BB85B3AF
:10036000846085BB80E18A95F1F700C085B38B7FFF
:1003700085BB089595B39E7F95BB95B39D7F95BB37
:1003800095B39F70282F207F922B95BB95B39460D7
:1003900095BB30E13A95F1F700C095B39B7F95BBD3
:1003A00025B330E1839FC0011124922F9F70892BC8
:1003B00085BB85B3846085BB80E18A95F1F700C079
:1003C00085B38B7F85BB089595B3916095BB95B33D
:1003D0009D7F95BB95B39F70282F207F922B95BB57
:1003E00095B3946095BB30E13A95F1F700C095B3B1
:1003F0009B7F95BB25B330E1839FC0011124922FD1
:100400009F70892B85BB85B3846085BB80E18A950D
:10041000F1F700C085B38B7F85BB089585EA9EE028
:100420000197F1F700C0000080E30E94A40181EE73
:1004300094E00197F1F700C0000080E30E94A4015E
:1004400093E29A95F1F780E30E94A40183E28A95F2
:10045000F1F780E20E94A40193E29A95F1F788E215
:100460000E94BA0181EE94E00197F1F700C000000C
:1004700088E00E94BA0181EE94E00197F1F700C094
:10048000000081E00E94BA0181EE94E00197F1F74B
:1004900000C000008EE00E94BA0181EE94E0019756
:1004A000F1F700C000008CE00E94BA0181EE94E0F8
:1004B0000197F1F700C0000008950F931F93CF93A9
:1004C000DF938C01C0E0D0E009C0F801EC0FFD1F04
:1004D0008081882331F00E94E4012196C431D10546
:1004E000A4F3DF91CF911F910F910895803190F582
:1004F00061110AC080680E94BA0181EE94E0019700
:10050000F1F700C000000895613059F4805C806804
:100510000E94BA0181EE94E00197F1F700C000005B
:100520000895623059F4805F80680E94BA0181EEBC
:1005300094E00197F1F700C000000895633051F492
:10054000805B80680E94BA0181EE94E00197F1F728
:1005500000C0000008955058BB27AA270E94C3027C
:100560000C940D040E94FF0338F00E94060420F052
:1005700039F49F3F19F426F40C94FC030EF4E09533
:10058000E7FB0C94F603E92F0E941E0458F3BA17F8
:10059000620773078407950720F079F4A6F50C9499
:1005A00040040EF4E0950B2EBA2FA02D0B01B901DB
:1005B00090010C01CA01A0011124FF27591B99F0D9
:1005C000593F50F4503E68F11A16F040A22F232FE5
:1005D000342F4427585FF3CF469537952795A79535
:1005E000F0405395C9F77EF41F16BA0B620B730BDC
:1005F000840BBAF09150A1F0FF0FBB1F661F771F4D
:10060000881FC2F70EC0BA0F621F731F841F48F401
:10061000879577956795B795F7959E3F08F0B0CF8A
:100620009395880F08F09927EE0F97958795089571
:100630000E942C030C940D040E94060458F00E94A2
:10064000FF0340F029F45F3F29F00C94F6035111A9
:100650000C9441040C94FC030E941E0468F399233B
:10066000B1F3552391F3951B550BBB27AA276217AE
:100670007307840738F09F5F5F4F220F331F441FBB
:10068000AA1FA9F335D00E2E3AF0E0E832D09150EF
:100690005040E695001CCAF72BD0FE2F29D0660FDC
:1006A000771F881FBB1F261737074807AB07B0E81F
:1006B00009F0BB0B802DBF01FF2793585F4F3AF025
:1006C0009E3F510578F00C94F6030C9441045F3F73
:1006D000E4F3983ED4F3869577956795B795F795AB
:1006E0009F5FC9F7880F911D9695879597F9089593
:1006F000E1E0660F771F881FBB1F6217730784072F
:10070000BA0720F0621B730B840BBA0BEE1F88F73D
:10071000E09508950E94260488F09F5798F0B92F1D
:100720009927B751B0F0E1F0660F771F881F991F26
:100730001AF0BA95C9F714C0B13091F00E94400484
:10074000B1E008950C944004672F782F8827B85F94
:1007500039F0B93FCCF3869577956795B395D9F77E
:100760003EF490958095709561957F4F8F4F9F4F88
:100770000895E89409C097FB3EF490958095709594
:1007800061957F4F8F4F9F4F9923A9F0F92F96E9DD
:10079000BB279395F695879577956795B795F11152
:1007A000F8CFFAF4BB0F11F460FF1BC06F5F7F4FEF
:1007B0008F4F9F4F16C0882311F096E911C0772301
:1007C00021F09EE8872F762F05C0662371F096E80A
:1007D000862F70E060E02AF09A95660F771F881FD9
:1007E000DAF7880F9695879597F9089597F99F6797
:1007F00080E870E060E008959FEF80EC08950024A9
:100800000A941616170618060906089500240A9475
:1008100012161306140605060895092E0394000CFB
:1008200011F4882352F0BB0F40F4BF2B11F460FF8A
:1008300004C06F5F7F4F8F4F9F4F089557FD9058B3
:10084000440F551F59F05F3F71F04795880F97FB94
:10085000991F61F09F3F79F087950895121613064E
:100860001406551FF2CF4695F1DF08C0161617067D
:100870001806991FF1CF86957105610508940895B2
:10088000E894BB2766277727CB0197F908950E9444
:100890005A040C940D040E94FF0338F00E940604D1
:1008A00020F0952311F00C94F6030C94FC03112412
:1008B0000C9441040E941E0470F3959FC1F3950FA0
:1008C00050E0551F629FF001729FBB27F00DB11DD4
:1008D000639FAA27F00DB11DAA1F649F6627B00D64
:1008E000A11D661F829F2227B00DA11D621F739F4D
:1008F000B00DA11D621F839FA00D611D221F749F5B
:100900003327A00D611D231F849F600D211D822FA1
:10091000762F6A2F11249F5750409AF0F1F08823C8
:100920004AF0EE0FFF1FBB1F661F771F881F9150F5
:100930005040A9F79E3F510580F00C94F6030C94AB
:1009400041045F3FE4F3983ED4F38695779567952D
:10095000B795F795E7959F5FC1F7FE2B880F911D1F
:100960009695879597F9089597FB072E16F40094AE
:1009700007D077FD09D00E94C80407FC05D03EF4DB
:10098000909581959F4F0895709561957F4F08953B
:10099000AA1BBB1B51E107C0AA1FBB1FA617B707A5
:1009A00010F0A61BB70B881F991F5A95A9F78095C1
:1009B0009095BC01CD0108958F929F92AF92BF9206
:1009C000CF92DF92EF92FF92CF93DF93EC01688199
:1009D00079818A819B81611571058105910521F4D9
:1009E00064E279ED8BE597E02DE133EF41E050E0F3
:1009F0000E94EB0749015A019B01AC01A7EAB1E44F
:100A00000E940A086B017C01ACEEB4EFA5019401D1
:100A10000E941808DC01CB018C0D9D1DAE1DBF1D71
:100A2000B7FF03C00197A109B04888839983AA83BF
:100A3000BB839F77DF91CF91FF90EF90DF90CF90B6
:100A4000BF90AF909F908F9008950E94DC0408950E
:100A500080E690E00E94DC040895A0E0B0E080937E
:100A6000600090936100A0936200B09363000895CA
:100A7000AEE0B0E0EEE3F5E00C942B080D891E89A2
:100A800086E08C831A8309838FEF9FE79E838D8393
:100A9000AE01475E5F4F6F89788DCE0101960E944F
:100AA0005A05EF81F885E00FF11F10822E96E4E0E1
:100AB0000C944708ABE0B0E0E0E6F5E00C941D08CC
:100AC0006C017B018A01FC0117821682838181FF00
:100AD000CCC1CE0101963C01F6019381F70193FD53
:100AE000859193FF81917F01882309F4BAC18532F2
:100AF00039F493FD859193FF81917F01853229F42B
:100B0000B60190E00E945107E7CF912C212C312CA7
:100B1000FFE1F315D8F08B3279F038F4803279F0B8
:100B20008332A1F4232D20611DC08D3261F080330A
:100B300069F4232D216016C0832D8260382EE32DA9
:100B4000E4603E2E2AC0F32DF8601DC037FC2DC096
:100B500020ED280F2A3040F08E32B9F436FC81C1E6
:100B6000232D2064322E19C036FE06C08AE0989EDE
:100B7000200D1124922E11C0EAE02E9E200D11248A
:100B8000222EF32DF0623F2E08C08C3621F4832DE7
:100B90008068382E02C0883641F4F70193FD8591B4
:100BA00093FF81917F018111B3CF982F9F7D955441
:100BB000933028F40C5F1F4F9FE399830DC0833659
:100BC00031F0833771F0833509F059C021C0F80145
:100BD000808189830E5F1F4F88248394912C530159
:100BE00013C02801F2E04F0E511CF801A080B18023
:100BF00036FE03C0692D70E002C06FEF7FEFC501C4
:100C00000E9446074C018201F32DFF773F2E16C04C
:100C1000280122E0420E511CF801A080B18036FE6E
:100C200003C0692D70E002C06FEF7FEFC5010E9425
:100C30003B074C01F32DF0683F2E820133FC1BC0B3
:100C4000822D90E088169906B0F4B60180E290E01B
:100C50000E9451072A94F4CFF50137FC859137FEA5
:100C600081915F01B60190E00E94510721102A9402
:100C700021E0821A91088114910471F7E8C084364A
:100C800011F0893641F5F80137FE07C060817181A6
:100C9000828193810C5F1F4F08C060817181072E94
:100CA000000C880B990B0E5F1F4FF32DFF763F2E24
:100CB00097FF09C090958095709561957F4F8F4FF4
:100CC0009F4FF0683F2E2AE030E0A3010E948D077D
:100CD000882E861845C0853731F4232D2F7EB22EFD
:100CE0002AE030E025C0932D997FB92E8F36C1F0D0
:100CF00018F4883579F0B5C0803719F0883721F0BD
:100D0000B0C0E92FE061BE2EB4FE0DC0FB2DF46033
:100D1000BF2E09C034FE0AC0292F2660B22E06C09D
:100D200028E030E005C020E130E002C020E132E000
:100D3000F801B7FE07C060817181828193810C5FE9
:100D40001F4F06C06081718180E090E00E5F1F4FF1
:100D5000A3010E948D07882E8618FB2DFF773F2E5A
:100D600036FE0DC0232D2E7FA22E891458F434FE9A
:100D70000BC032FC09C0832D8E7EA82E05C0B82C76
:100D8000A32C03C0B82C01C0B92CA4FE0FC0FE01D7
:100D9000E80DF11D8081803321F49A2D997EA92ED2
:100DA00009C0A2FE06C0B394B39404C08A2D86780D
:100DB00009F0B394A3FC11C0A0FE06C0B21488F4DD
:100DC000280C922C9B180EC0B21460F4B60180E27D
:100DD00090E00E945107B394F7CFB21418F42B1887
:100DE00002C0982C212CA4FE10C0B60180E390E034
:100DF0000E945107A2FE17C0A1FC03C088E790E043
:100E000002C088E590E0B6010CC08A2D867859F0C2
:100E1000A1FE02C08BE201C080E2A7FC8DE2B60118
:100E200090E00E945107891438F4B60180E390E005
:100E30000E9451079A94F7CF8A94F301E80DF11DAF
:100E40008081B60190E00E9451078110F5CF2220E9
:100E500009F442CEB60180E290E00E9451072A9444
:100E6000F6CFF6018681978102C08FEF9FEF2B9618
:100E7000E2E10C943908FC010590615070400110CA
:100E8000D8F7809590958E0F9F1F0895FC016150B3
:100E9000704001900110D8F7809590958E0F9F1F9C
:100EA00008950F931F93CF93DF93FB01238121FDBF
:100EB00003C08FEF9FEF2CC022FF16C046815781E1
:100EC000248135814217530744F4A081B1819D01EB
:100ED0002F5F3F4F318320838C93268137812F5F93
:100EE0003F4F3783268314C08B01EC01FB01008444
:100EF000F185E02D0995892BE1F6D80116968D91A3
:100F00009C911797019617969C938E931697CE01F6
:100F1000DF91CF911F910F910895FA01AA272830F0
:100F200051F1203181F1E8946F936E7F6E5F7F4FB6
:100F30008F4F9F4FAF4FB1E03ED0B4E03CD0670F32
:100F4000781F891F9A1FA11D680F791F8A1F911D85
:100F5000A11D6A0F711D811D911DA11D20D009F4D5
:100F600068943F912AE0269F11243019305D319317
:100F7000DEF6CF010895462F4770405D4193B3E000
:100F80000FD0C9F7F6CF462F4F70405D4A3318F0A7
:100F9000495D31FD4052419302D0A9F7EACFB4E058
:100FA000A6959795879577956795BA95C9F7009710
:100FB0006105710508959B01AC010A2E06945795B1
:100FC000479537952795BA95C9F7620F731F841F08
:100FD000951FA01D0895052E97FB1EF400940E94F6
:100FE000020857FD07D00E94540807FC03D04EF4B6
:100FF0000C94020850954095309521953F4F4F4FE6
:101000005F4F089590958095709561957F4F8F4FB4
:101010009F4F08950E947608A59F900DB49F900D54
:10102000A49F800D911D11240895B7FF0C940A0808
:101030000E940A08821B930B08952F923F924F92B1
:101040005F926F927F928F929F92AF92BF92CF9258
:10105000DF92EF92FF920F931F93CF93DF93CDB761
:10106000DEB7CA1BDB0B0FB6F894DEBF0FBECDBFD9
:1010700009942A88398848885F846E847D848C84AA
:101080009B84AA84B984C884DF80EE80FD800C81B3
:101090001B81AA81B981CE0FD11D0FB6F894DEBF96
:1010A0000FBECDBFED010895A1E21A2EAA1BBB1BF6
:1010B000FD010DC0AA1FBB1FEE1FFF1FA217B30724
:1010C000E407F50720F0A21BB30BE40BF50B661F3A
:1010D000771F881F991F1A9469F7609570958095FE
:1010E00090959B01AC01BD01CF010895A29FB00175
:1010F000B39FC001A39F700D811D1124911DB29F4C
:0E110000700D811D1124911D0895F894FFCFEC
:10110E00010000002020202020202020202000731D
:10111E0074644E756D203A20253032642000537071
:10112E004F32203A20256420252520004F203A20DA
:0C113E0025642044203A20256420000095
:00000001FF
